:020000040000FA
:0800000023EC00F005EF00F015
:020008000000F6
:06000A00936A948C948EB1
:100010009490948282AC1CEF00F082AE14EF00F05A
:1000200018EF00F005EF00F038EC00F005EF00F0FD
:100030009FEC00F005EF00F082A228EC00F02DEC20
:1000400000F005EF00F0010E156E090E166E12009D
:10005000152A164E23EC00F01200828015500A0D6E
:10006000D8EC00F0829016500A0DD8EC00F0120087
:10007000000ED6EC00F0050ED8EC00F0010ED6EC28
:1000800000F0050ED8EC00F0030ED6EC00F0050EE3
:10009000D8EC00F0070ED6EC00F0050ED8EC00F01E
:1000A0000F0ED6EC00F0050ED8EC00F01F0ED6ECCB
:1000B00000F0050ED8EC00F03F0ED6EC00F0050E77
:1000C000D8EC00F07F0ED6EC00F0050ED8EC00F076
:1000D000FF0ED6EC00F0050ED8EC00F07F0ED6EC4B
:1000E00000F0050ED8EC00F03F0ED6EC00F0050E47
:1000F000D8EC00F01F0ED6EC00F0050ED8EC00F0A6
:100100000F0ED6EC00F0050ED8EC00F0070ED6EC82
:1001100000F0050ED8EC00F0030ED6EC00F0050E52
:10012000D8EC00F0010ED6EC00F0050ED8EC00F093
:10013000000ED6EC00F0050ED8EC00F01200816A3B
:10014000050ED8EC00F0010ED6EC00F0050ED8EC50
:1001500000F0020ED6EC00F0050ED8EC00F0040E14
:10016000D6EC00F0050ED8EC00F0080ED6EC00F04E
:10017000050ED8EC00F0100ED6EC00F0050ED8EC11
:1001800000F0200ED6EC00F0050ED8EC00F0400E8A
:10019000D6EC00F0050ED8EC00F0800ED6EC00F0A6
:1001A000050ED8EC00F0120081361200816E1200AC
:1001B000146EDEEC00F01406FCE11200190E206E45
:1001C000FA0E216E0000212EE2EF00F0202EE0EF6B
:0401D00000F0120029
:020000040030CA
:0100010000FE
:0100020019E4
:010003001EDE
:010005008179
:010006008178
:00000001FF
